:4000000000800020110000007D1600007D16000010B501F055FBC04670B512223D4B1A6003F02CFD3C4803F05BFF012003F046FD302003F0D5FB394A394B1A60394D802381
:40004000DB052B60384A116802230B431360374A374B1A600022374B1A60374A136808218B431360FA20C00003F06CFC334803F0ADFB334A334B1A60334B344A1A60A0213C
:40008000C900334A1160334A1A60A0214901324A1160324A1A60FE22120231490A603149196031490A60314A1A60C8214901304A1160304A1A60822212062F4B1A6080245A
:4000C00024032E4B1C6045222D4B1A60033A2D4B1A6001322C4B1A60033A2C4B1A6001322B4B1A6003322B4B1A602B49082003F01DFB082003F00EFB284B2B60284B1C600A
:40010000274B1B681B03FBD480225202244B1A6070BDC04630001040001BB7000600008004010B400C020B4078002E402D3E00007C002E4064F02E406CF02E40DC050000A2
:4001400000BF0300140301400000014045FF00800803014042FF00800C03014043FF00800003014040FF00800403014041FF00801003014044FF008008010B4000010B407F
:40018000380101403001014018010140140101401001014004010140293C00000000014710020B4070B572B60022524B1A600132514B1A7000240FE0504862001319590090
:4001C0000B00411889881A5AC31858880004104301F01CFA0134E4B2012CEDD9002411E0464EA2001319590071188D89C889000428430A8A498A09041143802201F00CFAAF
:400200000134E4B2002CEBD03C4918313C48443001F0E2F9A02212013A4B1A8001213A4B19708022D202394B1A60394A394B1A60394A3A4B1A60C0229205394B1A609923AC
:400240001B04384A1360A220C005374A1060374A1360D020C003364A1060364A1360364A1360A8221204354B1A608022D205344B1A600623334A1360334A1360334803782A
:400280003C22934314221343DBB20370304A107816230343DBB2137020232E4A13602E482E4A106029202E4A10602E482E4A10602E4A1360BC222E4B1A608022D2032D4B27
:4002C0001A60C02212022C4B1A603E222B4B1A6043322B4B1A602B4A2B4B1A60FC222B4B1A602B4B19602B4B1960FFF795FE01F0A7F970BD6CF02E401C700F40C4D4010012
:40030000C4D6010000600F4002600F4014000B40000030EE0000024003309900000102400003024000500F4008500F4010500F4018500F4020500F4030500F4034500F40A2
:4003400038500F402000104000800F4001700F4000700F4000000440B60DDB000800044000010440061C0300080104401801044000020440080204400C0204401802044062
:40038000000304404802D800080304400C030440180304401804044010B5064C2378002B07D1054B002B02D0044800E000BF0123237010BD701800200000000044C5010050
:4003C000084B10B5002B03D00749084800E000BF07480368002B00D110BD064B002BFBD09847F9E7000000007418002044C50100380F00200000000030B585B00C002D2887
:4004000000D131E12CD8232800D143E112D8042800D198E006D802286BD000D98FE001285DD06FE2212800D101E100D90DE105285BD067E2272800D1AFE005D8252800D1F6
:4004400046E100D82FE182E0292800D166E100D2E4E02A2800D1C8E02C2800D11FE151E2542800D1A7E116D8422800D194E108D8402800D157E100D983E1332800D1FBE0E1
:4004800040E24C2800D18EE14E2800D18FE1432800D037E2A4E1FA2800D115E109D8702800D1A7E1712800D1AEE0572800D029E285E10623FF33984200D189E104D8013BDB
:4004C000984200D180E11DE283235B00984200D182E1E0231B02984200D117E212E2C74805F0D0F900F072FF10E2C54805F0CAF90CE2C44805F036F9217802290CD002D8AD
:40050000012905D014E003290AD004290CD00FE0BD4805F027F90EE0BC4805F023F90AE0BB4805F01FF906E0BA4805F01BF902E0B94805F017F9B94805F0A4F9E6E1B84880
:4005400005F0A0F9E2E1B74805F09CF9DEE1B64805F098F9B54B1B78042B00D0D6E1B44805F090F9012001F0C9F9012001F0BAF902F03EFF02F088FF02F06AFF01F02AF9EB
:40058000AC4B1B6880221202134000D001231B18002BF3D103F00EFAB8E1488804F0F6F804F0ACFB0022A44B04F02EF902000B00A24805F0D7F8A24B1B781B070ED0A14B6E
:4005C00018789F4912F095FC9F4B1880002808D09E4805F0C7F800F08FFF02E005229C4B1A70012001F08AF990E1488804F0CEF804F084FB0022904B04F006F902000B00DC
:400600008E4805F0AFF881E10B88002B01D1914900E09149914805F0A5F877E1904805F031F9904805F02EF900F0D0FE6EE18E4D0522280004F00FFC29786A78AB78E878D8
:4006400000908A4805F08EF860E1894805F01AF901227F4B1A700023864A13608649874A1160874A137051E10968864805F07AF80322774B1A7049E17B4D0522280004F0C3
:40068000EAFB29786A78AB78E87800907E4805F069F83BE109687D4805F064F836E17C4805F0F0F832E1704D0522280004F0D3FB29786A78AB78E8780090764805F052F8D4
:4006C0000422634B1A7021E1734805F0DBF81DE1724805F047F8217806290CD002D8042905D014E008290AD015290CD00FE06C4805F0C8F80EE06B4805F0C4F80AE06A484C
:4007000005F0C0F806E0694805F0BCF802E0684805F028F805224E4B1A70F7E00978654805F020F8F2E0644805F01CF8A178082907D0102909D004290BD1604805F012F85F
:400740000AE05F4805F00EF806E05E4805F00AF802E0314805F006F8A1885B4805F002F85A4804F0FFFFA1790A2903D1584804F0F9FF02E0284804F0F5FF284805F082F807
:40078000C4E0544D0222280004F065FB69782A78514804F0E7FFB9E000224E4B5A704F4805F070F8B2E04E4805F06CF8AEE04D4805F068F8AAE04C4805F064F8A6E049888D
:4007C0004A4804F0CFFFA1E0494805F05BF89DE0484805F057F899E0474805F053F895E00E246C44200013F083FC2188434804F0B9FF8BE0424805F045F887E070C5010015
:4008000080C5010098C50100ACC50100C4C50100D8C50100ECC5010000C6010098C7010004C601001CC6010030C601000A2B00205CC60100080224400000F43F6CC60100B0
:4008400028130020102B0020E02A0020A4C601008C18002058C5010064C50100C4C60100F0C6010014C70100E82A00202CC701006CC70100DC2A0020A0860100E42A00202E
:40088000ED2A00209CC70100F4C7010050C8010084C80100ACC80100F0C8010010C9010030C901004CC9010070C9010084C901009CC90100A8C90100C0C90100E0C90100CF
:4008C000F0C9010004CA010018CA01002CCA010038CA0100D82A00204CCA01007CCA010098CA0100B4CA0100D4CA0100F8CA01003CCB010060CB010088CB0100A4CB0100D6
:40090000D8CB01000100024804F02CFF05B030BDFCCB010010B5002003F08CFA80B2024B588001221A7110BD8C18002010B56422034B5A7102F05CFD02F04EFE10BDC0468B
:400940008C18002010B5104CA3795B000F4A985A02F0CCFDA379013303221340A3710C4B1B78032B0FD1084AD3790133DBB2D371642B08D900F0CEFFC043C0B200F0BEFF4F
:400980000022014BDA7110BD8C1800203C0F00200A2B002010B502F00FFE074B1B7A002B03D008239843C0B202E008231843C0B202F0F6FD10BDC0468C18002000B585B0CC
:4009C0000E236B441880134B1B78022B1FD1124B1B7A012B1BD1114A0D336B440093137850780002184302230222012101F0E6FA0B4B1880002806D10E236B4419880948DF
:400A000004F0B0FE03E00100074804F0ABFE05B000BDC0460A2B00208C180020102B0020E02A002014CC010030CC0100F0B5474680B4050000241AE0164F63009846DE5BE8
:400A4000FF239E434346DE530A21280003F0AEFD89B2114B5B5C1E434346DE530A21280003F01EFD85B2002D03D00134E4B2032CE2D90134E3B207E006495800445AFF22FB
:400A8000224342520133DBB2032BF5D904BC9046F0BDC0463C0F002048C5010010B582B0264B1B79002B47D0244B00221A715B889BB26A46D3800A3B9BB2214A934204D982
:400AC000204804F04FFE012400E000246B46D8881D4A1389C31AD9175B184B401B041B0C5289934213DB184B1881FFF79FFF6B46063302220221012001F044FD134B188057
:400B0000002804D16B46D988114804F02BFE002C0BD00A4B5B7A002B07D10122074B5A726B46D888FFF74AFF04E0002C02D10022024B5A72FFF72EFF02B010BD8C180020E7
:400B4000F507000054CC01003C0F0020E02A00206CCC010030B583B000226B46DA8001F0B3FF002853D101F06FFD002001F0B6FE284B98423FD0002001F0B0FE80B26B4636
:400B8000D880254B9B89984241D0234B9881FFF74DFF6B46D9880A00204804F0E3FD002411E0A5B26B46D888052103F079FC80B2854203D2232004F0EFFD02E02D2004F01E
:400BC000EBFD0134E4B2132CEBD90D2004F0E4FD0A2004F0E1FD6B46063302220021012001F0D0FC0E4B1880002810D001000D4804F0B8FD0BE0084B9A89064B9A4206D0D8
:400C000001225242044B9A81074804F03BFE03B030BDC046FFFF00003C0F002078CC0100E02A002088CC010098C7010010B582B06B46063300221A8002320121012001F0DF
:400C400083F90F4B1880002804D001000D4804F089FD12E00C4B5B896A46D08883420CD0C043C0B202F0D8FC6B469C1DD988074804F078FD2288044B5A8102B010BDC0464D
:400C8000E02A0020BCCC01008C180020F0CC010030B583B000226B46DA7100243DE06B46073301222100002001F04EF91D4B1880002804D001001C4804F054FD2BE01B4BEB
:400CC0001B191A7C6B4607331B789A4223D0174A12191374DB070FD402F06EFC144B1B191B7B1843C0B26B46D87102F059FC611C104804F037FD0EE002F05EFC0C4B1B19B0
:400D00001B7B9843C0B26B46D87102F049FC611C094804F027FD0134E4B2032CBFD903B030BDC046E02A0020BCCC01003C0F002048C5010018CD010028CD010030B583B061
:400D40003C4B5B79002B02D0013B3A4A5371394B5B79012B6BD102F043FBC40002F034FC2043C0B2334B1B78032B5AD1324B18755AE0314B1B7D43401400012191400B4055
:400D8000994202D00132D2B24CE02B4B18751041284B0121084058710432D5B2053301222900002001F0EEFB244B1880002804D00100234804F0D6FC0CE01E4B5B79002BE5
:400DC00004D1611C1F4804F0CDFC03E0611C1E4804F0C8FC1D4B1B78022B25D1611C1C4804F0C0FC134C61791A4804F0BBFC1A4A05340094137850780002184301232A00DB
:400E0000002101F0DBF80D4B1880002805D0134804F0A8FC00F070FB06E0114804F032FD02E00022022AA4D90022024B5A7103B030BDC0468C1800203C0F0020E02A00204A
:400E400088CC010038CD010068CD01000A2B002098CD0100C0CD0100102B0020D0CD0100ECCD010070B5494B1B78012B4ED0032B00D08AE000F020FDC0B2454B1870002828
:400E800003D1424B1B7B002B7FD0002808D13F4B1B7B002B04D03E4A137000223B4B1A733B4B1B78792B15D13A4804F0EBFC3A4B18780122002112F005F8384B18800028C6
:400EC00004D0374804F04EFC00F016FB02222F4B1A705AE06E2B15D1324804F0D3FC2E4B18780022002111F0EDFF2C4B1880002804D02B4804F036FC00F0FEFA0222234BEB
:400F00001A7042E0284804F0BDFC3EE000F0D4FCC4B21F4B1C70002C37D02300303BDBB2092B15D82300303B204D28684343204A11688C46634413600A2103F0B1FA2860FE
:400F40001C4A137801331370200000F035FC02E0194804F097FC174B1B78062B15D1174804F090FC124B19680B4B1878012211F0A9FF0A4B1880002804D0114804F0F2FB20
:400F800000F0BAFA0222014B1A7070BD8C180020E22A002010CE0100102B0020E02A00202CCE010054CE010070CE0100E42A0020DC2A0020ED2A002098CE010098C7010063
:400FC000B0CE010000B583B06B46063300221A8002320321012000F0B7FF0A4B188000280ED16B46D888084BDB8A984208D0064BD882FFF71BFD6B46D988044804F0B2FB9E
:4010000003B000BDE02A00203C0F0020D8CE010010B562B6012000F065FC012000F06EFC00F0ACFB02F0ACFA02F01AFB2A4804F029FC2A4800F094FC294B1880002804D07F
:40104000284804F08FFB00F057FA00F059F800F0FDF901F0E1FA01F06FFD234802F006FA02F0CEFE02F034FF02F0DAFE1F4802F021FF1F49022002F0ADFD022002F0BAFD7D
:40108000FFF70CFD01F058FDFFF7D0FDFFF700FEFFF760FD07F03EFFFFF750FEFFF7E2FEFFF790FF134B1B78002BE9D000F092FB114B1B6880221202134000D001231B18AD
:4010C000002BDDD1002000F0A5FC0100044B18800A4804F047FBD3E7E8CE0100F9030000E02A002014CF01002D0900001509000045090000F02A0020080224402CCF010035
:4011000010B5024800F01AFF10BDC046AD11000010B5012808D0002802D0022808D00AE0054804F01FFB06E0044804F01BFB02E0034804F017FB10BD88CF010090CF01000B
:4011400098CF010010B506281ED880000F4B1B589F460F4804F006FB16E00E4804F002FB12E00D4804F0FEFA0EE00C4804F0FAFA0AE00B4804F0F6FA06E00A4804F0F2FACD
:4011800002E0094804F0EEFA10BDC04650CF0100A4CF0100ACCF0100C8CF0100E4CF010000D0010018D0010030D0010070B50C000300143BFF3B062B00D9CDE09B00694A74
:4011C000D3589F46684804F0CDFAA078FFF7A0FFE178664804F0C6FA654804F053FBBFE0644804F0BFFAA078FFF792FFE1785F4804F0B8FA604804F045FBB1E05F4804F0D8
:40120000B1FAA078FFF784FFE178584804F0AAFA5B4804F037FBA3E05A4804F0A3FAA078FFF776FFE178514804F09CFA564804F029FB95E0554804F095FAA078FFF768FFA3
:40124000E1784A4804F08EFA514804F01BFB87E0504804F087FAA078FFF75AFFE1784E4804F080FA63689A88012A02D11B681D7803E0186800F096FC050063689A88012A27
:4012800002D11B681A7803E0186800F08BFC020063689B882900414804F064FA60E0404804F060FAA078FFF733FFE1783D4804F059FA3D4804F056FA2079FFF743FF3B48E0
:4012C00004F050FAA3689A88022A18D8012A02D11B681D7803E0186800F064FC0500A3689A88012A02D11B681A7803E0186800F059FC020029002E4804F034FA26E02D4873
:4013000004F030FA002506E01368595D2A4804F029FA0135EDB2ABB2A26891888B42F3D3264804F01FFA002508E01368585D1F2800D82A2004F030FA0135EDB2ABB2A26867
:4013400091888B42F1D31E4804F00CFAA36899881C4804F007FA03E001001B4804F002FA70BDC0466CCF010034D001005CD001007CD0010098D00100C0D00100DCD0010012
:4013800004D1010020D1010048D1010064D101008CD10100A8D10100D0D10100E8D101000CD2010038D2010050D2010060D2010064D201007CD2010088D2010090D201005D
:4013C00094D2010098D20100A4D2010010B582B0002000F0A1FB114B1880002805D0104804F0C0F900F088F816E00E4804F0BAF9684607F07DFD062306E05C1E6B46195DD9
:40140000094804F0AFF9A3B2002BF6D1074804F039FA002000F072FA02B010BDE02A0020C4D20100E4D2010004D3010098C7010070B51600002405E04D1C087800F0BCF985
:4014400001342900B442F7DB300070BD00B585B002A807F051FD0A4B1880002804D00100084804F07FF908E002A8018842888388C0880090044804F075F905B000BDC0467C
:40148000E02A002020D3010050D3010010B5114804F068F9104B1A78042A17D893000F4AD3589F460E4804F0EDF912E00D4804F0E9F90EE00C4804F0E5F90AE00B4804F0DF
:4014C000E1F906E00A4804F0DDF902E0094804F0D9F910BD70D401000A2B00200CD3010070D301007CD301008CD3010098D30100A8D30100B8D3010010B52A4C21882A4812
:4015000004F030F92388132B3FD008D8012B1ED0002B18D0022B1ED0072B20D03DE00222FF32934223D005D8282B32D0013A934219D032E08122520093421CD00422FF32C8
:4015400093421CD029E0194804F09CF928E0184804F098F924E0174804F094F920E0164804F090F91CE0154804F08CF918E0144804F088F914E0134804F084F910E0124866
:4015800004F0F0F8FFF782FF0AE0104804F07AF906E00F4804F076F902E00E4804F072F910BDC046E02A0020C4D30100D0D30100D4D30100E8D30100FCD3010010D40100A6
:4015C0002CD4010044D4010068D4010078D4010094D40100B0D40100F0B50025002711E0BB00C658F3B2FF22964308E06A008A181478A419527822700135013BDBB2002B3C
:40160000F4D10137082FEBD9F0BDC04610B50A00002103F029FC10BD10B503F01CFC10BD064B1B68002803D080221206134301E05B005B08014A13607047C04680033A4097
:4016400010B50323084A1360084A136080221206074B1A600122074B1A600022064B1A600120FFF7DDFF10BD300030403000314000003A4000033A40000E3F4010B503F056
:40168000AFFB03680C2B00D1FEE7FEE710B50300094A1068C318094A9A1A802109018A4202DC054A136005E003F09AFB0C2303600120404210BDC046540F0020902B0020E4
:4016C00070B50F4E0F4D13E029686B68AC68002202E001C901C30432A242FAD1E868002202E0002102C304328242FAD11035013E002EE9D103F07AFBFFF78AFCFEE7C046F0
:401700000100000010E2010010B50E4A136801218B43136000230AE0032B03D89A000A49505800E009489900094A885001332F2BF2D9FEF737FD034A116801230B431360ED
:4017400010BDC04600001040000000007D1600000000002010B500F099F810BD10B500F041F810BD10B5044A1368802109060B431360FFF7EFFF10BD0000244010B5064B9B
:401780001B78002B04D1FFF7E9FF0122024B1A70FFF7E8FF10BDC0469A180020014B18687047C04640032440024B1B681F2018407047C04608032440044B1B681F22134013
:4017C000082BF9D0024B18607047C0460802244040022440024B1B681F2018407047C04608022440154A164B1A600023154A13601549164A1160164A16490A6007201649B8
:40180000086016490B6006381549086015490A60154A13600421154A1160154A1360154A1360154A1360154A1360154A1360154A13601268144B1A807047C0460F000002B6
:40184000000024404000244001000A00480024400700008000032440040324401003244044002440000224400402244050002440880E2440C80E2440480F2440080F244043
:40188000C80F2440880F24409C180020064A1168064B0B40902109040B431360044B1A88044B1A607047C04600010240FFFF0FFF9C180020880F244010B5FFF775FF00284E
:4018C00002D0FFF76BFF00E00020054B1A68D8239B001A4203D01A00014B1A60002010BDC00F244004490A687F231A40C301D8B2104308607047C0460003044004490A6898
:40190000D2B240239A438001184010430860704700030440024B186880090123184070470403044010B500F0EDFC10BD10B50024064B1C70064B1C70064B1C70FFF7F2FFAB
:40194000054B1C70054B1C7010BDC046132B00200C2B0020122B0020F02A0020F82A002010B590B00400142220490BA803F073FA20231F4AD35C002B05D1FFF7D7FF0121C9
:4019800020231B4AD154002C2CD01A4B1C6008A805AA426006AB08930421018117311980598004211971082313701621694407F08DFB002817D1104B0293104B01930523CC
:4019C00000930BAB0E4A0F490F4807F0D5FA002809D101220D4B1A70153256210C4814F0FFF900E0012010B010BDC046ACD70100A0180020F42A00207902000000EB010027
:401A00003C0E0000C0000020A11C00000A2B0020C0D7010010B592B00400394B1B78DB070BD50EF0B1FD00280AD1354A137801218B4313709B0702D402E0002000E0282020
:401A4000002801D0002C1DD02D4B1B789B0719D52C4B1B78042B15D8DA00D31A59009E239B009C466144284BC918013123000E2226480EF06FFD002804D1214A13780221C9
:401A80008B431370002801D0002C37D01C4B1B780C221A4232D01B0712D53A320021684603F0E2F923004622194968460EF052FD002823D1124A137808218B4313701DE0AF
:401AC0000E220021684603F0CFF92123114AD25CD3009B1A59009E239B009C4661440A4BC918013123000E2268460EF033FD002804D1034A137804218B43137012B010BD2A
:401B0000F02A0020102B002000EB0100FC2A002079ED0100A018002010B502282FD81C4B1B78042B2DD11B4B1B785B072CD4002809D1194BB4221A86943A596A0A805B6A6B
:401B400010325A800CE001280AD1134B96221A86C822D200596A0A805B6A8022D2015A800E4B18700C48203011F01EFD00280DD1084A117804230B43DBB2137006E0012078
:401B800004E00420FF3001E00420FF3010BDC0460A2B0020132B0020580F0020122B00207047C04603784078000218437047C04670B5050083890D2B1FD1043033332A0024
:401BC000002114F05FF9041E11D16868FFF7EAFF830706D50A4B1B68290082204000984705E0074B1B6829000620FF309847054A137801218B43137000E00024200070BDD9
:401C0000F42A0020132B0020024B00225A701A707047C046102B002010B582B00400FFF7C7FF0F4B1B78DB0704D5002802D1200000F06CFB0A4B1B78DB070ED4002809D0AF
:401C400001A912238B70A3890B80C870206812F021FE02E0206812F09FFE02B010BDC046132B002010B5002805D0034B1B78DB0701D500F0EFF910BD132B00208379002B81
:401C800007D000200BE0C25C002A07D10133DBB200E00023052BF6D9002000E001207047F0B583B004000D00944A117801230B43DBB21370282800D1ACE014D8212800D102
:401CC0007FE007D8052863D0062865D0012800D003E120E0262800D1A0E000D996E0242800D18FE0F9E04C2800D1E1E009D8422800D1D2E0432800D1D2E0412800D0ECE0EC
:401D0000B4E0542800D1DFE0FA2800D1E0E04E2800D0E2E0D0E001AE0727377000237370300009F049F9377001237370300009F043F9734B1E683000FFF7A0FF00280CD083
:401D4000300007F0EBF86E4E00213068FFF728FF30680121FFF724FF0BE06A4E300007F0DDF800213000FFF71BFF01213000FFF717FF012011F0AAFA0222634901A803F064
:401D80006AF801A811F0C0FA0422604B1A70A4E02A785F4B1A70A0E02B78002B00D09CE06B78002B07D15B4B0222DA8016329A80594A1A606B60514A137801218B43137021
:401DC0008BE04E4B1B789B0600D586E0534B1B78102B02D10522514BDA70514B18784F4911F0A0FB01AB1880002804D04D4B1B6801A936209847414A117801230B43DBB277
:401E000013706AE06A78484B1A7066E002223F4B1A7062E004223D4B1A705EE03B4B1B78022B5AD0354A1278D20756D5334A1278520708D50322354B1A70304A137804218D
:401E40008B43137049E02D4A1278120708D504222E4B1A70294A137808218B4313703CE0032B3AD10422294B1A7036E02C4E02222900300002F0EFFF0022254B1A70327824
:401E8000D3009A1A53002949C918294B9C4661440E22284802F0DFFF1FE0FFF7B5FE1CE06988162900D91721288812F0FDFC14E02800FFF7B1FE10E0104B1B78DB070CD598
:401EC000280000F023FA08E02800FFF7CBFE04E0194A117801230B431370084B1A7811231A4209D0054A137801218B4313700D4B1B6829002000984703B0F0BD132B0020BD
:401F00008C0F0020900F002080DE01000A2B00200C2B0020C4180020FC0E002028130020102B0020F42A0020F82A002000EB010079020000FC2A0020F02A0020014B186015
:401F40007047C046CC18002030B585B0022825D8174C245C8C4223D98000164C20184468002C1FD009016418218800291CD001A8018195B2858001930022002113F048FFF5
:401F8000002809D12388013B9A00D3189A000A4B9A1813691D8008E0012006E0012004E0012002E0132000E0132005B030BDC0463013002090DE0100C0D7010030B587B08E
:401FC00001AC20801C0002292CD81D4B5B5C93422AD91C4B1B78022B28D189001A4B59184D681201AD186B88013B9A00D3189A00164B9A1813695868FFF7D4FD830718D56B
:402000002B88002B18D003A90B810A9B03938C80019812F07DFC00280FD103AB1A890C4B9A800AE0012008E0012006E00420FF3003E00220FF3000E0132007B030BDC0463F
:40204000301300200A2B002090DE0100C0D70100CC180020F0B585B00500204B1B68002B39D01E4B9B88002B2FD134E09B001C4AD3185A682301D25A184B9B889A4216D18A
:4020800001AF02222900380002F0E5FEBE70FC7000227A6013490B78012083430B700F4B9A801B6839001820FF30984701210134E4B200E0002433000B4A925D944201D2B8
:4020C0000029D3D00136F6B201E000210026022E01D80029EED005B0F0BDC046CC18002090DE0100132B002030130020F0B55F4656464D464446F0B491B0002304E0002171
:4021000006AAD1540133DBB2132BF8D9002304E000210BAAD1540133DBB2062BF8D9764B9B88002B00D0C5E00020DEE0AB00734AD3185A68002A12D02301D3181A88002AD7
:402140000FD09B88002B0ED00DA80381072383800BAB0D930022002113F05AFE04E0012002E0012000E0012000280CD10BAA93791B02527913439E4205D99A4503D2A2B227
:4021800093461E0000930134E4B201E05C4E0024594B5B5D9C4201D20028C7D04346002B53D15B461B01544C1434E418E3890DA803810123838004AB07330D93002200213E
:4021C00013F026FE00285BD123880DA8038104AB07331B789B08013383804C464B46013306AA944663440D930022002113F010FE002814D044E0039BCE18751C06AB5A5D01
:402200000198824092469A5D544614439C550826361A5A5D32415A550131C9B202E000210290039404ABDD79AB0801339942E2D30298019B5B08EB189A084A44D2B29146BF
:40224000032213405B0001931AE04346012B17D1AD002A4B5D196A685B461B01D35A0DA803810223838006AB4B440D930022002113F0CEFD002803D14B460233DBB299468C
:402280000137FFB2009B9A4604E000239B469A46B8461F004546184B5B5D9F4202D2002800D173E747464B460133DBB299467B1CDFB206E000239946114A00920027002025
:4022C0000193012F01D80028DFD000280DD10A4B9B880DA803814B46013B838006AB0D9300230022002113F0CDFD11B03CBC90469946A246AB46F0BD3013002090DE010099
:40230000FFFF000010B5FFF7F1FE10BDF0B55F4656464D464446F0B487B082468689924B1B68002B00D0FDE00024002707E1C8464B469B008D4AD3185B68002B00D0E5E089
:40234000EBE043469B00894AD31859682B01C9180B889E4204D1072203AB1A71012412E0072203AB1A71002309E05A008A185288964202D103AA137102240133DBB2062BE9
:4023800001D8022CF1D1002F6FD1022C6DD103AB1B79022B42D002D8002B05D065E0042B50D0052B54D060E00B88013B9A00D3189A006F4B9A185368DA0216D553465868C1
:4023C000FFF7F0FBC30703D51423FF339B4602E08A235B009B46674B1B78012B45D1664A117802230B4313703FE09B0236D553465868FFF7D7FB830703D51623FF339B46F9
:4024000002E08B235B009B465A4B1B78012B2CD1594A117802230B43137026E0CB88013B9900C9188A0052498A18918952461289914215D39900CB1899004D4B59180B69DD
:402440001A8012E053465B681B78062B0AD80CE053465B681B78022B06D806E0062704E00D2702E0802700E08027002F4BD1631EDBB2012B47D8534698894222514612F052
:4024800027FE071E39D1012C14D153461B886A4613806B464A469A70DD7000236A461372534604330193304B1B6869468C204000984712E0022C10D103A953461B880B80F7
:4024C0004B468B70CD7000234B71534604338B60254B1B681A20FF3098475346181D40235246002113F0CEFC07005B46002B04D01D4B1B6803A958469847204A13780121B5
:402500008B43137009E00135EDB200E000251C4B42469B5C9D4200D213E74B460133DBB2994604E000239B460024002799464B46022B04D8002C02D1002F00D1F7E6002F0E
:4025400005D00E4A137801218B43137004E0012C02D1FFF7CBFD0700380007B03CBC90469946A246AB46F0BDCC18002090DE0100C0D70100F82A0020F02A0020132B002080
:402580003013002010B584B002281CD8164C245C8C421AD98000154C20184068002816D00901415A002914D001A801818280019300230022002113F065FC002801D00124D4
:4025C00008E0002406E0012404E0012402E0132400E01324002C04D1FFF788FD002800D01334200004B010BD3013002090DE010010B5084B1B78002B06D100F053F900F084
:4026000089F90122034B1A7000F040F800F07EFB10BDC046D218002010B5FFF7E9FF041E02D100F007FB0400002C02D100F084FA040000F049FA0028FBD100F075F900F03B
:40264000C9F9200010BDC04670B50E4E0024002514E06B0902339B000B4AD3185B681F222A40D340DB0707D5300000F055F804003100280000F0EAF824360135002DE8D013
:40268000200070BDB0DE0100142B002030B500230BE01948191D890000220A509A1C920082180121494251600133002BF1D0134A01231CE05568137E0F48401800240475D9
:4026C000023BDBB2012B10D81369002B01D0E87918705468002306E0181D4000201801256D42C5800133002BF6D024320B00591E002BDFD130BDC046142B0020B0DE010056
:4027000030B50B884A889C1A0025CD800079844200DDCC8030BDC046F0B583B0070084684568037E01930026002300930BE0019A2100280000F064F9009021002800FFF778
:40274000DFFF0A340136FB8A9E42F0D3009803B0F0BDC046F0B5474680B482B084460F00CB8A8A684E6809698846002803D17088B179401802E07188B079081A002501214F
:4027800009E0D388984201D3002300E00B001D430A32490023005C1E002BF2D1002D0CD043461B78002B02D0013B4246137043461B78002B04D0654602E0F3794246137021
:4027C000002D31D07388B2799A1AFB8A98461900B86800F05BFD041E2FD03B7E022B2CD14246F96901A800F0BBFD0400BB8A9846002716E07B0001AAD05A3B1D5B00F3185C
:40280000D988114B994200D101004346DB0603D50023802200F0EAF83B1D5B00F318D8800137BC42E6D808E0002406E0231D5B00F31801225242DA800134002CF6D0280053
:4028400002B004BC9046F0BDFFFF000070B504000B7E134A1218157D023BDBB2012B04D82800FFF777FF050002E0002000F05CFF0B4B1B191D7563091F2214401E3AA2408B
:40288000002D06D1064904339B0058589043585005E0034904339B00585802435A5070BD142B002010B50A4C64220021200002F0DBFA084B23808C231B016380042323768D
:4028C00020001A301022044902F0C5FA10BDC046142B0020CCB9FFFFA0DE0100002811D1C20012189300094AD31828331B78023BDBB2012B08D8C30018188300D3185B695A
:40290000D88902E0024800E001487047A0DE0100FFFF00000023024A9380024A13607047142B0020DC18002001230BE0CA0052189300064AD318DB8A00E013005A1E002B36
:40294000FBD10B00591E002BF0D17047B0DE0100FF231940062902D08318002119715300195AC31859808218002313727047C04670B50D4DC3001C18A200AA1894688A003C
:4029800051184A00A41818188300EB181E7E012305E02A0031002000FFF7DAFF2B005D1E002BF6D170BDC046B0DE010070B50500C20012189300064AD318DB8A04E021005B
:4029C0002800FFF7D5FF23005C1E002BF7D170BDB0DE010010B5012303E02000FFF7E6FF23005C1E002BF8D110BDC0469840504380235B009A1A51434018000A7047C0469E
:402A0000F0B5474680B482B007000E00019201233EE06300985BF3185988884205D3431A321900251572012201E00B1A0022002A11D17D79AB420ED933191B7A3A7A934251
:402A400005D3220001993000FFF782FF1FE03219013313721BE03D79AB4204D97D79AB4215D2002A13D1FF23019A1340062B0ED00902331998461B79194308230122FFF73D
:402A8000B5FF020A6300F3185A804346187123005C1E002BBDD1002002B004BC9046F0BD054803680F2293431900044B1B7813400B4303607047C04600FF284062F2FF0F4D
:402AC00010B5FFF7EDFF10BD024B9B68802018407047C046142B002010B50F4B9B68DB030ED400280ED1430902339B000A4AD3185B681F220240D340DB0705D4012404E09D
:402B0000112402E0012400E00024002C01D100F0A1FA200010BDC046142B002010B5054B9B68DB0303D400F00FFA002000E0112010BDC046142B002010B50C4B9B681B0611
:402B400012D40024012040420BE02000FFF7C4FF002805D10022064B1A70FFF7DFFF04E00134002CF1D000E0112010BD142B0020E018002030B500200D4B16E019680A6874
:402B80001C69A2430A605C6822689D7E0721A9408A4311000622AA400A43226099680A685C69A2430A601C3301300428E6D930BDD4DE01007047C046074A084B1A60013862
:402BC0000002074B1860054B1B68002BFBDB054A024B1A607047C04640000040000001400003014040FF0080074A084B1A6001380002074B1860054B1B68002BFBDB054A58
:402C0000024B1A607047C04641000040000001400403014041FF008010B5031E01D1002000E00120002803D15521180000F0E4FA10BDC04670B50024002504E02000FFF7DA
:402C4000EBFF05430134002CF8D0280070BDC04670B5002516E0EB005B199A000B4BD658002406E0E3001B1B9800301800F0C0F90134EA0052199300044AD3189B7D9C42E9
:402C8000F0D30135002DE6D070BDC046B0DE0100C30018188300024AD3185B6858897047B0DE010010B50A4B1C7E0203121A01238B40013B63439A4205D30202101A834282
:402CC00003D9402002E0C02000E00020C0B210BD142B002010B50C00FFF7DAFF2188FFF7E1FF207310BDC04610B5002409E0E20012199300044AD31859682000FFF7EAFF48
:402D00000134002CF3D010BDB0DE010010B5FFF7D7FEFFF7E9FFFFF72DFF00F041F8002010BDC046054A13689B0A9B0213601368802189000B4313607047C0460800284055
:402D400070B50E001500038801249C40013CA3001B195800642101F0A3FB013083199C4200D22300B04201D8301A00E00020A84203D8AB4203D2062002E0062000E0002095
:402D800070BDC04610B5054AC02314689C43204310600800FFF728FF10BDC046F413002010B5FFF755FFFFF7BDFF07490B680F229343093A13430B60044B1B68044A134397
:402DC000044A136010BDC04600040240F41300202008E8810400284010B50930040001F088F8064A1368FF218B4305490978615C0B43136001F081F810BDC04608002840AF
:402E000060DF010010B5074B1B78DBB2DA00D3189A00054B9A1853685989187BFFF7B2FF10BDC046E2180020B0DE0100028801239340013B1B04014A53607047F4130020AF
:402E400070B501F056F804001E4B1B681E4A13431E4A13601E4B187EFFF7AEFE1D4A1E4B1A601D4B1B68002BFBDB1C4A1A4B1A601B4E3568272001F033F81A4B2B401A4AAC
:402E800013433360F0235B0000E0013B174A1268120701D4002BF8D1114B1D60094D144B2A681343094A1360102000F033FC6F2001F016F86A680F4B1A60200001F01DF8FD
:402EC00070BDC046F41300202008E88104002840142B0020410000400000014041FF00800800284000E8FFBFF0060040100028402018E8810C00284010B5044A044B916866
:402F00000B439360FFF79CFF10BDC046142B00208000010070B50400857E067E00F0E9FF23681B680F22B24093431A000423B3401343666832680721A9408A433260226891
:402F4000136000F0DAFF70BD70B5194E3378DBB2184DDA00D3189A00AA185068164C002323703378DBB2DA00D3189A00AA1891682378DBB29A00D3185A008A180F4B1A60FF
:402F8000FFF72AFF3378DBB2DA00D3189A0050592278D2B2D3009A1A9300C018084B1860FFF7B8FF074800F091FBFFF7A5FF70BDE2180020B0DE0100E1180020782B002013
:402FC0007C2B0020593F000010B5C30018188300054A9858CB00591A8B00C018034B1860FFF798FF10BDC046B0DE01007C2B002070B50400007EA57E21680B680F22824022
:4030000093430B6000F075FF61680B680722AA4093431A000623AB4013430B6000F06DFFA1680B68607E0122824093430B6070BD10B5064B1B78012B06D1054B1868FFF75C
:40304000D7FF0022014B1A7010BDC046E31800207C2B002070B50400104EC20012189300F3185D68FFF7E4FFE4B20D490C700B78DBB2DA00D3189A0092590A4B1A600A4A39
:403080007F23906898430300906009780B4393602800FFF7CBFEFFF7B5FE70BDB0DE0100E21800207C2B0020142B002070B5C20012189300134AD3185D68C9B2124C21703F
:4030C00099682378DBB29A00D3185A008A180F4B1A60FFF7BFFF2800FFF77EFE2378DBB20B49DA00D31A98000B689C4660440860FFF710FF0122074B1A70074800F0E6FAA5
:4031000070BDC046B0DE0100E1180020782B00207C2B0020E3180020013F0000F0B5474680B482B007000E0090462B490B78DBB2DA00D3189A00294B9A1853680193802351
:4031400033700878C0B2264B1978C9B2FFF7AEFF8025FFF7D1FE234A00E0013A224B1B7A5BB2002B01DA002AF7D1204B1B681C88BC4202D23378AB4333706D0833782B4373
:4031800033700198FFF728FE002DE2D1124B1B78DBB2DA00D3189A00104BD058104B1A78D2B2D3009A1A9300C018114B1860FFF71FFF00220F4B1A70220039000198FFF73D
:4031C000BFFD43461A7833789A4201D24246137002B004BC9046F0BDE2180020B0DE0100E1180020CCCC0000142B0020782B00207C2B0020E3180020F0B585B00600C4009C
:403200002418A2001D4B9A185568012303AA13702A889340013B59430800642101F040F90190F2B2164B1A70164800F04FFA2C0009340022144B1A7000270AE003AA210067
:403240000198FFF76BFF07430F4A13780133DBB21370F20092199300084AD3185A7E0A4B1B78DBB29A42E9D803AB1B786B720022054B1A70380005B0F0BDC046B0DE010043
:40328000E2180020013F0000E1180020F0B50024324B1C700400002600230BE0E588954206D9AE4204D22D4E3371012737702E000A3401338B42F1D3284B1B78002B45D142
:4032C00049E0264FBB181B799E00F61874000519ED88AC465600B61875007D1966466E81002B12D18D006D186C000A3C0419E6885500AD186C003C19268101339D00EB18A7
:403300005D004519EB88A3811EE04D1EAB420BD10A3C0419E5885400A41863000F4CE3181D81C4889C810FE00A3C0419E6885500AD186C00094D2C19268101339D00EB180D
:403340005D004519EB88A381013200E00022034B1B789A42B5D3014B1878F0BDE4180020F0B5474680B482B080460F00019200262CE01A4B9B191C79002C07D172009219DB
:403380005300164AD31800221A810AE0019B013B9C4206D1720092195300104AD31800229A817500AA1953000C4AD3189A891989501A5B89C9185118784301F0FBF87C43C2
:4033C00000197F30000A434658530136034B18788642CED302B004BC9046F0BDE4180020024B1868C00901231840704704020440034B1868C0B27F2290431860C009704779
:40340000100204407047C046014B58647047C0460000002010B5040000F06BFD044A1168044B0B40A4031C43146000F066FD10BD00E400E0FF3FFFFF0222014B1A607047D7
:4034400000E100E00222014B1A60704780E100E010B5FFF7F7FF0448FFF7D6FF0220FFF7D9FFFFF7E9FF10BD0534000010B50400FFF7E8FF2000FFF7C7FF0220FFF7CAFFAA
:40348000FFF7DAFF10BDC0460222014B1A60704780E200E010B500F02CFD0B4A117820230B43DBB2137009490A7810231A43D2B20A70074A11780B43DBB2137000F01DFD86
:4034C000FF2000F011F910BD90000F4092000F4091000F40014B1878C0B2704762000F40014B1878C0B2704761000F40034B1B785B07FBD5024B18807047C04662000F4075
:4035000080100F4010B501E00E4B1B880E4B1B789B06F9D400F0EDFC0C490A78012401231A43D2B20A700A78A2430A70084A11780B43DBB213701378A343137000F0DDFC85
:4035400010BDC046A0100F4061000F4090000F4091000F4010B51F22064B1A70FFF7D2FFFFF7B8FFFFF7BCFF0023034A1370034A137010BD80000F4082000F4081000F4004
:4035800010B5064B1B78002B04D1FFF7E3FF0122024B1A70FFF77EFF10BDC046F2180020044A1368DBB20F218B430840184310607047C04600000440024B1B680F20184061
:4035C0007047C04604000440024B1868400807231840704704030440034A10680E231840106040087047C04610030440034A117880235B420B43DBB21370704773000F4026
:40360000014B18707047C04603000F40014B18707047C04643000F40014B18707047C04623000F4010B50C490B783F22934309221343DBB20B70094A117801230B43DBB249
:403640001370FF20FFF7DCFFFF20FFF7DFFFFF20FFF7E2FF10BDC04673000F4093000F4010B5064B1B78002B04D1FFF7DBFF0122024B1A70FFF7BAFF10BDC046F318002057
:403680008023014AD05070470000002010B5040000F02FFC044A1368C0218B43A4011C43146000F02AFC10BD10E400E080225202014B1A607047C04600E100E0802252026A
:4036C000014B1A607047C04680E100E010B50400FFF7F4FF2000FFF7D3FF0220FFF7D6FFFFF7E4FF10BDC046044B1B68002BFBDB0002034B1843014B186070470000014099
:4037000042000080024B1B68012018407047C0460C002E401F2318401E3B8340014A13607047C04600E100E001BE704770B504000D001F2802D90020FFF7F6FF1034A40094
:4037400080239B059C4664442068256070BDC04670B504000E00032902D90020FFF7E4FF1F2C02D90020FFF7DFFF03252540ED00063500F0BEFBA408A400074B9C46644461
:4037800021680323AB4099430B003100A9401943216000F0B2FB70BD00E400E010B5040006E0084B586800F09BFB074B9C46644480231B029C42F4D8024B9868604300F095
:4037C0008FFB10BDFC1300200080FFFF10B5034B1B7B584300F084FB10BDC046FC130020F0B557464E46C0B483B0040000F081FB0190E71E2D2F74D83F4B1B78DBB29C425D
:4038000008D83E4B1B78DBB29A463D4B1B78DBB2994631E03B4B1B78DBB29C4208D83A4B1B78DBB29A46394B1B78DBB2994623E0374B1B78DBB29C4208D8364B1B78DBB217
:403840009A46354B1B78DBB2994615E0334B1B78DBB29C4208D8324B1B78DBB29A46314B1B78DBB2994607E02F4B1B78DBB29A462E4B1B78DBB299462D4BDE5D2F2E09D9D5
:403880002A2C07D919222B4B1A60052000F028FB192503E0274B1D683F231D40B54206D9234BDA5D234B1A60052000F019FB1F4B9C4664442378DBB21F4A13601F4B524612
:4038C0001A601F4B4A461A600520FFF77FFFB5420AD2174BDA5D174B1A60052000F000FB02E00020FFF720FF019800F006FB03B00CBC91469A46F0BD40F3FF0F41F3FF0FE6
:4039000042F3FF0F43F3FF0F44F3FF0F45F3FF0F46F3FF0F47F3FF0F48F3FF0F49F3FF0F4AF3FF0F4BF3FF0F4CF3FF0F4DF3FF0F64DF01002CFF0B4028FF0B401CFF0B408F
:4039400020FF0B4010B504000F4A116801230B4313600E4A0E4B1A600E4A1368802109020B431360002809D100200CE00120FFF72DFFFFF7C7FE002804D1013C002CF5D1BA
:40398000102000E0002010BD60F02E400220000078002E4010002E4010B500F0AAFA044A136804218B43136030BF00F0A6FA10BD10ED00E010B500F09CFA1F4A13689B004B
:4039C0009B0813601D4A13689B009B0813601C4A13689B009B0813601A4A13689B009B081360194A13689B009B081360174A13689B009B081360164A13689B009B08136054
:403A0000144A1368802109060B431360124B1B889BB2124A1360124A116804230B43136010490B68FF2293430E3A13430B6030BF00F063FA10BDC0460800044008010440EF
:403A4000080204400803044008040440080504400806044000000B4050F2FF0F0C000B4010ED00E02C000B40034B1868C0231B02184000D00120704700010B4010B50D4B39
:403A80001A6801218A431A601A68022082431A60094A10683024A043203C204310601068093CA043014311601A68802109060A431A6010BD00F02E4000FF2E4070B51D4B94
:403AC0001B6801241C40002802D0012816D02BE0184B19680122914319601968022081431960154B19682E3081432038014319601968093881430A431A6018E00D4B1A6843
:403B000002218A431A600C4A10680725A84301431160116830208143103801431160196801220A431A6002E00020FFF7FDFD200070BDC04600F02E4000FF2E4010B500F0C7
:403B4000D8F9044A1368C02109020B43136000F0D4F910BD00010B4010B500F0CAF908490A68084B1A408024E40122430A600A6813408022120213430B6000F0BEF910BD38
:403B800000010B40FF3FFFFF70B5050000F0B1F90400FFF769FF002803D0FFF7DDFF012100E0002108482840084A1568084B2B40184310601368012901D1FFF7BFFF20000C
:403BC00000F09BF970BDC0460404040010020B40FBFBFBFF10B5022805D88000044B1B189869996103E00020FFF79EFD002010BDF418002010B502280BD88000074BC15882
:403C0000074B5A6A8A435A62064A53680B43536002E00020FFF788FD10BDC04694DF0100F41800201014002010B5244B1B685B0715D5234B5B685B070ED5224B596A0420D8
:403C400001401F4C62688A4362605A6A82435A629B69002B00D098470420FFF795FF174B1B685B0518D5164B5B685B0510D5154B596A8022D2001140114842688A43426079
:403C8000596A114A0A405A62DB69002B00D098478020C000FFF778FF084B1B685B030CD5074B5B685B0304D5064B1B6A002B00D098478020C002FFF767FF10BD10020B40FC
:403CC00010140020F4180020FFFBFFFF10B503210F20FFF73DFD26490F20FFF727FD0122244B1A60244B1B68002B01DA234900E02349244A13680B431360234A234B1A60A1
:403D0000234A244B1A600023234A1360234A24490A6024490A6024490A688020400202430A60224A1360224A13600122214B1A60214A1168214B0B40802189050B4313604D
:403D400002221F4B1A6000230EE09A001D495118802080000860580000241B494452C22040001A4950500133002BEED010BDC046613E000020003A4080033A4070021051A5
:403D80007002005100003A408C00008004003A400000FF0718003A401C003A400400040010003A4014003A4000033A4028023A4038023A4018023A4030003A40FEFFFFDF00
:403DC000040F3A4080003A40842B0020802B002010B5094B1B68002B0CDB084B1B68002BFBDB054A1368802109060B4313600A20FFF7ECFC10BDC04600003A4008023A4009
:403E000010B5064B1B78002B04D1FFF75FFF0122024B1A70FFF7DCFF10BDC0461C190020034A1368802149020B4313607047C04604003A4010B5041E02D00020FFF774FCA3
:403E4000002C07D1A400054B9C46644420680004000C00E0002000B210BDC04680013A40014B1A681A60704710023A40014B98647047C0460000002010B5040000F039F80E
:403E8000044A1168044B0B40A4051C43146000F034F810BD00E400E0FFFF3FFF0422014B1A60704700E100E00422014B1A60704780E100E010B50400FFF7F6FF2000FFF72A
:403EC000D5FF0320FFF7D8FFFFF7E8FF10BDC04680221202014B1A607047C04600E100E00230800803D00138FDD1C046C046C0467047EFF3108072B6704780F310887047E4
:403F000001220C4B1A600C4B1A680C4B1B780C4909685B00D1520B4B1B680B4A13430B4A13600B4BDA880132DA800A4A99680A409A60704714002840782B002060DF010026
:403F40000C002840F41300202008E88104002840142B00207FFFFEFF70B5324E3378DBB2314CDA00D3189A001159304D2B78DBB2DA00D31A9800081801222D4B1A602D4BF3
:403F80001A682D4B1B782D4909685B00D1522C4B1B682C4A13432C4A1360FFF729F83378DBB2DA00D3189A00A218927D013A2B78DBB29A421ED91D4A13780133DBB2137075
:403FC00018480378DBB2D900CB189900164B59188C681378DBB29900CB1859006118154B19600078C0B21178C9B2FEF7EDFFFEF727FF15E000220D4B1A70144A144B916866
:404000000B409360134A1278012A02D1FEF7D2FD06E00E4A80218B439360D3880133D38070BDC046E2180020B0DE0100E118002014002840782B002060DF01000C0028402F
:40404000F41300202008E88104002840142B0020FFFFFEFFE0180020F0B557464E464546E0B4C0B080460E0017008A18204B9A422FD80B0A99461C0200239C46002522E02C
:40408000B4420CD3BD420AD24246515D6A46D1542278D2B28A4200D00120013502E022786946CA540134013301E000200023FF2BE6D9002804D06946484600F059F9844630
:4040C00001239A46D144BD4205D26346002BECD001E001239C466346012B02D901235B429C46604640B01CBC90469946A246F0BDFFFF03000160704701607047324B1A780F
:404100001202324B1B781A43314B1B781B02314909780B4330498B4201D1072A06D0D42109018B4206D1042A04D102E02B4B042200E02A4B2A490B602A4B1A602A4B1B781C
:404140001B022A4A1278134380229201934202D0002B02D002E0264B00E0254B254A1360254B1B781B02254A12781343244A934205D0244A934204D0052B05D103E0224B7C
:4041800002E0214B00E0204B204A1360204B1B681B09204A1268AA2A15D1012B13D9164B1B780E2B0FD11C4B1B781B021B4A127813431B4A13601B4B1B781B021A4A12787C
:4041C00013431A4A1360704759F1FF0F58F1FF0F5FF1FF0F5EF1FF0F580B0000580D00006C002E4074002E405BF1FF0F5AF1FF0F0220000078002E405DF1FF0F5CF1FF0F7B
:404200000F0F000005050000050F000080002E40EC0F00F0E00F00F06DF2FF0F6CF2FF0F84002E406FF2FF0F6EF2FF0F94002E4010B5FFF7CBFA10BD10B5FFF7AFFA10BD62
:4042400010B500F073F810BD10B500F077F810BD10B500F073F8034800F052F8022000F055F810BD9944000010B5024800F06EF810BDC0469944000000487047020200009A
:4042800010B516F0A5FD10BD10B516F0ADFD10BD10B516F095FD10BD10B516F08DFD10BD10B516F091FD10BD10B516F099FD10BD10B516F07DFD10BD10B516F08DFD10BDAE
:4042C00010B516F099FD002010BDC04610B516F09FFD002010BDC04610B516F095FD10BD10B516F08DFD10BD10B513F002FC10BD10B516F07DFD10BD10B505F0EFFA10BDAF
:40430000014B18677047C0460000002010B50400FFF7EFFD044A1368C0218B43A4011C431460FFF7EAFD10BD0CE400E080225201014B1A607047C04600E100E08022520192
:40434000014B1A607047C04680E100E010B50400FFF7F4FF2000FFF7D3FF0220FFF7D6FFFFF7E4FF10BDC046002070470020704730B5C5B004000023439342933D4B98420A
:4043800072D8002970D08022520002A800F063FD394B9C4201D9394B00E0394B0093FF230193384B6A461A603749384A1160C0461B681B0F1B07F0221206934204D1314BAA
:4043C0001B68FF2213400DE02E4B1B681B0F1B07A0221206934204D02A4B1B68FF22134000E000234393439B002B3FD1FFF781FD0500FFF7B9FF4290439B002B25D1244A4A
:404400000092009A2404144300941E4A6946116020481E490860C0461268120F1207F02109068A4204D1174B1B68FF2213400BE0144A1268120F1207A02109068A4203D03E
:40444000104B1B68FF2213404393429B002B07D1FFF78CFF4290429B002B01D0429B43932800FFF74AFD01E004234393439845B030BDC046FF030000FF010000B6D70001BF
:40448000B6D70000080010400400008004001040B6D800000500008010B518F03FF810BD002243088B4274D303098B425FD3030A8B4244D3030B8B4228D3030C8B420DD34C
:4044C000FF22090212BA030C8B4202D31212090265D0030B8B4219D300E0090AC30B8B4201D3CB03C01A5241830B8B4201D38B03C01A5241430B8B4201D34B03C01A524177
:40450000030B8B4201D30B03C01A5241C30A8B4201D3CB02C01A5241830A8B4201D38B02C01A5241430A8B4201D34B02C01A5241030A8B4201D30B02C01A5241CDD2C30946
:404540008B4201D3CB01C01A524183098B4201D38B01C01A524143098B4201D34B01C01A524103098B4201D30B01C01A5241C3088B4201D3CB00C01A524183088B4201D39F
:404580008B00C01A524143088B4201D34B00C01A5241411A00D20146524110467047FFE701B5002000F0F0F802BDC0460029F7D076E7704703460B437FD4002243088B42CA
:4045C00074D303098B425FD3030A8B4244D3030B8B4228D3030C8B420DD3FF22090212BA030C8B4202D31212090265D0030B8B4219D300E0090AC30B8B4201D3CB03C01A08
:404600005241830B8B4201D38B03C01A5241430B8B4201D34B03C01A5241030B8B4201D30B03C01A5241C30A8B4201D3CB02C01A5241830A8B4201D38B02C01A5241430ACC
:404640008B4201D34B02C01A5241030A8B4201D30B02C01A5241CDD2C3098B4201D3CB01C01A524183098B4201D38B01C01A524143098B4201D34B01C01A524103098B42CD
:4046800001D30B01C01A5241C3088B4201D3CB00C01A524183088B4201D38B00C01A524143088B4201D34B00C01A5241411A00D201465241104670475DE0CA0F00D04942BC
:4046C000031000D34042534000229C4603098B422DD3030A8B4212D3FC22890112BA030A8B420CD3890192118B4208D3890192118B4204D389013AD0921100E08909C309DB
:404700008B4201D3CB01C01A524183098B4201D38B01C01A524143098B4201D34B01C01A524103098B4201D30B01C01A5241C3088B4201D3CB00C01A524183088B4201D3DD
:404740008B00C01A5241D9D243088B4201D34B00C01A5241411A00D20146634652415B10104601D34042002B00D54942704763465B1000D3404201B5002000F005F802BDFE
:404780000029F8D016E770477047C04670B5041E28D000F007FB9E231B1A962B0ADC9622D21A94406202520AD8B25202520AC005104370BD992B18DC9922D21A9440114A84
:4047C0002240610704D00F210C40042C00D00432510103D50B4B1A409F231B1A9201520AD8B2E2E700200022DFE705222500121AB921D5402200C91A8A40541EA2412C0097
:404800001443DCE7FFFFFFFBF0B55F4656464D464446F0B40D0399464E002B0B87B00700924680469B46760DCC0F002E69D06D4B9E4235D05B468022DD001204430F13434F
:404840002B439B46C3009846674B00279C460023664401934A4615035000D20F53462D0B400D914600D176E05E4A90426CD080225B0F120413435C4AED0094461D435346A3
:404880000022DB00604449463618701C6140029017430F2F00D9AFE05448BF00C759BF465B461F4300D088E000239B469846023308270193CEE74946022A6AD0032A00D17E
:4048C00009E2012A00D0BBE111400022002300259046CCB200212D030A0D12052D0B1543434A1B0515401D436D00E4076D0825434046290007B03CBC90469946A246AB4695
:40490000F0BD034352D05B46002B00D18AE1584600F048FA03000B3B1C2B00DD7BE11D22D31A3A0001005D46DA4008398D4013008F402B439B46B8462E4B00279C460023BB
:4049400060444642019385E752462A432CD100250023022297E752462A4321D0002D00D154E1280000F01EFA03000B3B1C2B00DD46E11D21CB1A51460200D9405346083A82
:40498000954093400D431B4A944660444042002279E7012400220C40124B0025904699E70025002301226EE703226CE700239B4698460133042701934CE703230C27019380
:4049C00048E700238025984600242D03054B81E75D464346019A6FE75D4643462100019A6AE7C046FF07000001FCFFFFA0DF0100FFFF0F80F30300004246120C91461A0CD3
:404A00009446424617044A461B041B0C5A43604690464A4642431000039262461C003F0C7A437C4342440192220C9246019A5244904506D98246802040028046C2445046B5
:404A40000390100C049048462404240C1204121905922A0C2D042D0C68432C00824648467C4350438146200C8046574357444744BA4503D9802040028046C144380C3F048E
:404A8000B84648442404240C01900498A044404404905846000C814658460404200C8246070048465F434C464343604660436446834650464443380C8446E4186444A34221
:404AC00003D980235B029C46E34448463F04230C3F0C2404E419574668436F4384464D46504655434243380C814662444A445B44944503D9802040028446654403983F0491
:404B0000834604983F0C8446E344C345804140428246100484460198674484466744A344BC46A345A4419946D44464428742BF41D4458041E144A04699459B417F4240422C
:404B4000C8440743120CBA18A045A4415F423B0064422343D71843467D19DB0D6D021D435B465A02059B1A43531E9A415B46DB0D1A4343465B021343EA0107D501225C08C2
:404B800013402343EA07029E13436D08574AB218002A4BDD580709D00F201840042805D0181D98429B415B42ED180300E80104D54F4A15408022D200B2184E48824200DDAE
:404BC000E7E60124DB08680718436D02530580462D0B5B0D0C407DE6802259461203114208D0154206D115432D0398462D0B4C46414B6FE65D4615432D032D0B3E4B69E63F
:404C000003005546283B9D400023BCE6504600F0C9F82030A8E60300283B9F400023BB46984689E600F0BEF8203073E60124A61A382E07DD00220C4000230025904649E6BD
:404C4000029EA3E71F2E20DC20222C001800921BF040944093400443581E83411C43F540630709D00F232340042B05D023001C1D9C4292415242AD182B021FD501240022F8
:404C80000C4001230025904624E61F202C004042821AD440202E1CD04022961BB5402B43581E83410720234318400025002809D00F2200251A401C00042AD8D123006807B8
:404CC0006D022D0B0124DB08034398460C40002300E60025E3E780220124120315432D0398462D0B0C40044BF4E5C046FF030000FFFFFFFEFE070000FF0700004200120E3F
:404D0000511C4302C9B270B55D0AC40F012915DDE02189008C466D071B0B6244002128000D0D2D052B431C4D52052B40520813435B00E4075B082343190070BD002A15D1EC
:404D4000002D1FD0280000F02DF80A281DDC0B232A001B1ADA4013000200153295400F4A1B03121A52051B0B520DD7E7002D06D080221B0B120313436D07094ACEE7084A96
:404D80000023CBE700220023C8E703000B3B9D402B000025E3E7C046FFFF0F8089030000FF0700001C2101231B04984201D3000C10391B0A984201D3000A08391B09984226
:404DC00001D30009043902A2105C40187047C04604030202010101010000000000000000014B18687047C046301800200E4B70B500251E000D4CE41AA410A54204D0AB0042
:404E0000F35898470135F8E719F0F0F9084B00251E00084CE41AA410A54204D0AB00F35898470135F8E770BDF8E10100F8E10100F8E1010000E2010030B50024A24208D09D
:404E4000035D651C0C5DA34201D0181B02E02C00F4E7002030BD002310B59A4203D0CC5CC4540133F9E710BD03008218934202D019700133FAE77047F0B58BB014001D1E89
:404E8000129906DA802424061B191D0014002D2300E000230B702023149E03229E43462E07D03300453B59424B411099013ACB18109309AB049308AB0393139B0092029373
:404EC000109B220001932B0000F042FE0700472E02D1119BDB072DD5109BFB180793462E14D13B78302B0CD1002200232000290002F004FC002804D10123109A9B1A139ACE
:404F00001360139B079A1B68D3180793002200232000290002F0F2FB3022002802D0079B099307E0099B0799994203D9591C09911A70F7E73800099B159ADB1B13600BB0A8
:404F4000F0BDF7B52B2307000C000270861C002901DA2D234C427B70092C1CDD6B46DD1D20000A21FFF70CFC013D3031297020000A21FFF71FFB04000928F1DC013D30343D
:404F80002C706B4607333000AB4209D92B78013533700136F5E73023E4183370B01C7470C01BFEBDF0B595B00C000A920B931A9D099001F01BFD036818000D9300F06CFCA0
:404FC0000023129323680E900C930C99277E2B680722C90501D59B1800E0073393431A0008322A601A685B68A264E3640122E56CA66C6B005B080F935242C04B30000F99F7
:4050000003F04EFE002819D10122BC4B524230000F9902F083FB002810D1002200233000290002F071FB002803D023002D2243331A70B34D472F0ED8B24D0CE032002B0003
:405040003000290003F02CFE002800D19AE1AE4D472F00D8AD4D03230C9A236101339A432260002642E0672F00D193E1472F00D190E10C9A0021134312AA059211AA039285
:40508000232223600691019308A9636852180292009332002B0004970998FFF7EDFE20233A0005009A43472A00D18EE11199652F00D996E1200001393A0050301191FFF72C
:4050C00040FF129A060083182361012A00DD85E12268D20700D581E1232308AA9B181B78002B03D023002D2243331A700B9B13AA009321000A9B099800F0A4F9431C02D1CE
:40510000012040429BE12268530501D4236964E0652F00D8CCE0A06CE16C0022002302F0EDFA00282CD00123794A0A9909980B9DA847431CE4D0119B129A934208DB2368A6
:40514000DB0705D4236800259B0700D50FE113E10B9D0E9B0D9A0A990998A8470025431CCED0129B013B9D42ECDA220001231A320A9909980B9EB047431CC1D00135F0E71B
:40518000119B002B2BDC0123614A0A9909980B9EB047431CB4D0119B002B05D1129B002B02D12368DB07CDD50B9E0E9B0D9A0A990998B0470026431CA2D0119B5B429E42C0
:4051C0000ADA220001231A320A9909980B9FB847431C95D00136F0E7129B2A00ACE0A36D129E9E4200DD1E00002E05DC00230C93F343DB170F9315E033002A000A9909984B
:405200000B9FB847431CF1D17AE7220001231A320A9909980B9FB847431C00D170E70C9B01330C930F9BA26D0C993340D31A9942EBDBAE18119B129A93420DDB2368DB071C
:405240000AD4129B119AED18AD1B9B1A9D4200DD1D00002D09DC11E00E9B0D9A0A9909980B9FB847431CECD14AE72B0032000A9909980B9EB047431C00D141E7EF43FB1733
:4052800000260C930AE0220001231A320A9909980B9FB847431C00D132E70136119A129B0C999B1A2A000A409B1A9E42EBDB49E7129B012B02DC01231A4245D001232A00F5
:4052C0000A9909980B9FB847431C00D118E70E9B0D9A0A9909980B9FB847431C00D10FE7A06CE16C0022002302F008FA002801D000251AE0129B6A1C013B26E0FFFFEF7FA4
:40530000ECDF0100E8DF0100F4DF0100F0DF0100F8DF0100220001231A320A9909980B9FB847431C00D1EBE60135129B013B9D42F0DB2200330050320A9909980B9DA84762
:40534000431C00D0FEE6DBE62A000A9909980B9DA847431CEDD1D3E62200012319320A9909980B9EB047431C00D1C9E60135E368139A9B1A9D42EFDB139BE06898425EDA96
:4053800018005CE080236268DB00511C00D06AE6073202E0002A02D10122626069E60C9908A80B430021069112A9059111A90391232109182360019300922B000497029117
:4053C00032000998FFF758FD0500119BDA1C02DB626893421CDD023FFFB267E6013323617AE6662F15D16368002909DD2161002B02D12268D2071ED50133591821611AE0D0
:40540000002B03D101222168114213D09A1C11E06727119B129A934206DB22682361D20709D50133236106E00121002B01DC4918C91A8A182261119B0026A3654CE615B081
:40544000F0BDC046F7B5170001938A680B6900900C00934200DA130022003B6043321278002A01D001333B6023689B0602D53B6802333B60062523681D401ED023004333C8
:405480001B785A1E9341226892061CD53020E1184331087021005A1C45310978A2184332023311700FE022000123193201990098089EB047431C0ED00135E3683A689B1AEE
:4054C0009D42F0DBDAE72200019943320098089DA847431C02D10120404220E006232068E1683A6803400025042B03D18D1AEB43DB171D40A3682269934201DD9B1AED18E1
:405500000027BD420AD0220001231A3201990098089EB047431CDED00137F2E70020FEBDF0B58BB006920A0043320793059004920A7E0C00109B6E2A00D1ABE011D8632AAC
:4055400022D009D8002A00D1B5E0582A00D0C5E045310A70814A4FE0642A1DD0692A1BD0BCE0732A00D1AAE009D86F2A29D0702A00D0B3E0202209680A43226037E0752AB2
:405580001FD0782A33D0A9E00E001A684236111D196013683370A4E021681A68080606D4490604D5111D19600023D55E02E0111D19601568002D3BDA2D23049A6D421370FD
:4055C00036E021681A68080606D4490604D51568111D1960ADB202E0111D196015685F4B227E039308276F2A1DD00A271BE022007821453211705A4A19680392081D226814
:4056000018600D68100602D4500600D5ADB2D30702D520231A4322601027002D03D1202322689A4322602300002243331A7002E00A274A4B03936368A360002B09DB04224A
:40564000216891432160002D05D1049E002B11D07BE0002D79D0049E28003900FEF7A6FF039B013E5B5C280033703900FEF718FF051EF1D1082F09D12368DB0706D5636880
:405680002269934202DC3023013E3370049B9B1B23612BE009681A68080607D4490605D5111D19601368A28A1A8004E0111D1960136862691A600023049E236116E01A689A
:4056C000111D1960166800216268300001F000FA002801D0801B6060636803E0260042363270012323610023049A1370079B09AA00932100069B0598FFF7A4FE431C02D140
:405700000120404227E02369320006990598079DA847431CF4D0236800259B070FD4099BE068984217DA180015E022000123193206990598079EB047431CE1D00135E3681C
:40574000099A9B1A9D42F0DBE9E72600039B42361B7833708EE70BB0F0BDC046FADF01000BE001000FB40B4B13B51C68002C05D0A369002B02D1200001F0A4F805AB049AD1
:40578000A1682000019301F07BFD16BC08BC04B01847C04630180020084B70B51C680500002C05D0A369002B02D1200001F08AF82900A268200001F07FFE70BD30180020B7
:4057C00070B505000E00002804D08369002B01D101F078F8AB69AC68002B02D1280001F071F8254B9C4201D16C6808E0234B9C4201D1AC6803E0224B9C4200D1EC68A389F6
:405800001B0702D52369002B11D12100280000F0A3F800280BD0012040422BE0013B0136A360002B08DB23685A1C226019703178A3680029F2D10BE0A269934201DB0A2947
:40584000F1D12200280000F02FF8431CEFD1E2E7013BA360002B08DA22000A31280000F023F8431CD7D00A2004E00A2023685A1C2260187070BDC0462CE001004CE001008B
:405880006CE0010010B5034B01001868FFF798FF10BDC046301800200023C25C0133002AFBD1581E70470000F8B505000F001400002804D08369002B01D101F003F8234B93
:4058C0009C4201D16C6808E0214B9C4201D1AC6803E0204B9C4200D1EC68A369A360A3891B070AD52369002B07D023682269FEB2981A636998420FDB08E02100280000F0C8
:405900002BF80028F1D0012040421DE02100280000F06AFF0028F6D1A3680130013BA36023685A1C22601F706369984205D0A3893000DB0708D50A2E06D12100280000F0BF
:4059400053FF0028DFD13000F8BDC0462CE001004CE001006CE00100364B70B51D6806000C00002D05D0AB69002B02D1280000F0A9FF314B9C4201D16C6808E02F4B9C423A
:4059800001D1AC6803E02E4B9C4200D1EC680C22A35E9AB2110723D4D10607D409220120326037321343A381404242E0530713D5616B002908D023004433994202D030007B
:4059C00001F08AFB002363632422A3899343A38100236360236923600822A3891343A3812369002B0BD1A0238022A1899B0092000B40934203D02100300001F021F8012356
:405A0000A289134005D00023A36063695B42A36103E0920700D46369A36000202369834207D10C22A35E1A0603D540221343A381013870BD301800202CE001004CE001000D
:405A40006CE00100F0B503690C6989B00700059100269C4279DC0B00013C1433A50003935B1904930300143302935D19049B28681B68591C0193FEF713FD0190B04233D0B4
:405A8000039B02989C460696634604CB9C46019B91B25943120C5A4389190B0CD3180793069A1E0C038889B29B1802685B1A110C6A46928B8A1A1914521811149BB2120493
:405AC000134308C0049B06916345DDD22B68002B0AD1029B043DAB4201D33C6104E02B68002BFAD1013CF4E70599380001F00CFA002829DB0020019B02990133039A0193EC
:405B000040CA0B881818B3B2C31A0868360C000C801B1D14451928149BB22D042B4308C1049B9342ECD2029AA300D3181A68002A0AD1029A043B9A4201D33C6104E01A680C
:405B4000002AFAD1013CF4E7019E300009B0F0BDF0B516001F00446A9DB00490259D06960797002C08D1102000F0A8FF049B5862446084600460C460049B5B6A196800293B
:405B80000BD05A68012393404A608B60049800F0E2FF0022049B5B6A1A60079B002B05DA01232B607B005B08079301E000232B60079CC84B220019931A409A4219D1C64B38
:405BC000249A1360069AC54B002A02D1240300D1C34B269A1800002A01D100F07DFDD978DA1C002900D00532269918000A6000F073FD069E079F002200233000390001F082
:405C00007DFD051E0ED00123249A1360B54B269A1800002A01D100F05FFDB34A26990A6000F05AFD1AAB01931BAB009332003B00049801F0EFF9630005905B0D09D03A03FD
:405C4000AA4C120B1443AA4A300021009E1817951AE01A9B1B9A9E18A64BF318202B08DDA54A0698B218D0404022D31A9C40204303E020220698D31A984003F0A9F8012398
:405C80009E4C013E0919179300229D4B02F0B4FC9C4A9D4BFEF7B8FD9C4A9D4B01F05CFD040030000D0003F051F89A4A9A4BFEF7ABFD02000B002000290001F04DFD04003B
:405CC0000D0003F00DF80022039000232000290001F01AFD00280DD0039803F037F802000B002000290001F009FD43424341039AD31A039301231693039B162B11D88749D9
:405D0000DB00C91808684968069A079B01F010FD002805D0039B013B03930023169300E016901A9B9E1B00230B93013E0C9604D50C9B5B420B9300230C93039B002B08DB4E
:405D4000039A0C9B944663440C9300231192089307E00B9B039A9B1A0B935342089300231193229B0125092B25D8052B02DD0025043B2293229B981E032824D801F0A4FC83
:405D8000060E0204012302E0012308E000231093239B002B20DD1F000A9321E00023239A1093039B9F187B1C0A930123FA18002A16DD130014E0012700237F422293109582
:405DC0000A97123305E0012701237F4210930A9711330022239203E001273B000A972397049A546A00226260043211001431994204D86168520001316160F6E761680498F8
:405E000000F071FE049B20605B6A1B680D930A9B0E2B00D981E1002D00D17EE1069B079C14931594039B002B31DD0F223B491340DB00CB185C681B680E930F94039B022406
:405E40001D11EB060AD514981599354B15401A6A5B6A01F0ADFF069007910134304E002D0ED001231D4208D00E980F99E41832687368FEF7C9FC0E900F916D100836EEE781
:405E80000E9A0F9B0698079901F092FF4CE0039B02245D42002D49D0149815990F231F4A2B40DB00D3181A685B68FEF7ADFC0023069007911A4E2D11002D33D00122154251
:405EC00005D0A41832687368FEF79EFC01236D100836F1E70000F07F0F27000025E001001CE00100F8DF0100F9DF01000000F03F01FCFFFF3204000012040000000010FE79
:405F00000000F83F61436F63A787D23FB3C8608B288AC63FFB799F501344D33F98E0010070E10100002B01D006900791169B002B1DD0069D079E0022C74B2800310001F008
:405F4000E3FB002813D00A9B002B10D0002F00DCDFE0039B3100013B0E930022BF4B2800FEF752FC0134069007913E0002E0039B0A9E0E93200002F0E9FE069A079BFEF7E1
:405F800043FC0022B64B01F0E7FBB64A12901391129C139D9446139B634418931D00002E1CD1069807990022AF4B02F025FB2200189B0690079101F0BBFB002800D054E2B2
:405FC000AA481399844661440B0006980799220001F09AFB002800D03DE29AE0109A731EA349DB00002A49D0CB181A685B680020A04901F0DDFE2B00220002F0FDFA1290F8
:4060000013910D9D0698079902F06AFE040002F09DFE02000B000698079902F0EDFA01356B1E30341C70129A139B0690079101F06BFB002800D02EE3069A079B00208649FD
:4060400002F0DAFA129A139B01F05EFB002800D0C7E00D9BEB1AB3425BDA1298139900227E4BFEF7D1FB002212901391069807997A4BFEF7C9FB06900791C3E7C91822003F
:40608000086849682B00FEF7BFFB0D9C12901391A5190698079902F023FE060002F056FE02000B000698079902F0A6FA303626700134069007910022A54222D16D4B129801
:4060C000139901F049FB02000B000698079901F02FFB002800D084E0129A139B0020654902F08AFA02000B000698079901F00CFB00280ED06B1E1A78302A00D0CBE21D0007
:40610000F8E706980799554BFEF77EFB06900791BFE7149B159C069307941B9B002B00DA81E0039A0E2A00DD7DE0D300504AD3185C681B6808930994239B002B15DA0A9B4D
:40614000002B12DC00D088E1089809990022464BFEF75AFB069A079B01F0F4FA0A9B08931E00002800D07BE182E10D9D069E079F089A099B3000390001F01AFE02F0B0FD0D
:40618000040002F0E3FD089A099BFEF73DFB02000B003000390002F02FFA220001356B1E30321A700D9B0A9AEB1A9A422ED102000B0001F0D1FA06000F0002000B00089881
:4061C000099901F0A1FA00280FD10898099932003B0001F093FA002800D15EE2E30704D45BE20E9B039300E01D006B1E1A78392A08D10D9A9A42F7D1039A0D99013203921B
:4062000030220A701A7801321A7046E20022134BFEF7FAFA0022002306000F0001F06EFA0028A5D039E2109A002A44D0229A012A0BDC179A002A02D00F4A9B1802E036239D
:406240001A9A9B1A089D0B9C29E00A9B5D1E089BAB4213DB5D1B18E00000F03F0000244000001C400000C0FC000014400000C07C98E001000000E03F33040000089B089508
:40628000EA1A0025119B9B1811930A9B002B04DA0B9B0A9A9C1A002301E00B9C0A9B0B9A0121D2180B920C9A0498D3180C9300F0F2FC060002E0089D0B9C109E002C0ED0D0
:4062C0000C9B002B0BDD0C9A2300944200DD13000B9AE41AD21A0B920C9AD31A0C93089B002B20DD109B002B17D0002D11D031002A00049800F062FD059A010006000498D9
:4063000000F0D2FC05990E90049800F024FC0E9B0593089B5A1B06D000E0089A0599049800F04CFD05900121049800F0B4FC119B0890002B00D1C0E11A000100049800F018
:406340003DFD229B0890012B17DC0025069BAB420ED1079B1B03AB420AD1199B079A134206D00B9B013501330B930C9B01330C93119B0120002B0DD000E00025089B089A8E
:406380001B690E9303339B00D318586800F039FC2023181A0C9BC0181F23184009D001331B1A042B02DD1C23181A03E0042B08D018001C300B9B24181B180B930C9B1B18ED
:4063C0000C930B9B002B05DD1A000599049800F049FD05900C9B002B05DD1A000899049800F040FD0890169B002B1DD00899059800F08AFD002817DA039B0A22013B039329
:4064000005990023049800F0BFFB109B0590002B00D159E1310000230A22049800F0B4FB0600002F37DC33E00A9B0A9F002B2ADC229B022B27DD002F12D108993B00052247
:40644000049800F0A1FB08900100059800F05CFD00280DDC04E0089602E000231E000893239B0D9DDB4303930AE00E9B089603930D9B0D9A5D1C31231370039B013303933A
:406480000A960026F3E0109B002B04D10D9DB5E0229B022BCFDC002C05DD31002200049800F0E0FC06000A96002D12D07168049800F019FB3100040033690C319A1C920077
:4064C0000C30FEF7C8FC01222100049800F0CAFC0A900D9B7D1E0B935B190E9308990598FFF7B0FA310010900400059800F00CFD0A9A05000899049800F021FD01230C9381
:40650000C36830340700002B04D10100059800F0FBFC0C903900049800F01DFB0C9B229A134308D1069A0133134204D1392C2AD0002D1CDC1DE0002D06DB229B1D431BD19F
:406540000123069A134217D10C9B002B11DD05990122049800F086FC0899059000F0D4FC002802DC05D1E30703D5392C0BD0109C31340B9B5D1C0FE00B9B5F1C0C9B002BA5
:406580000CDD392C05D10B9B0B9A5D1C3923137057E03D000B9B01341C7068E00B9B0E9A3D001C7093423CD000230A220599049800F0EAFA0A9B05909E4208D13100002355
:4065C0000A22049800F0E0FA06000A900DE0310000230A22049800F0D7FA002306000A220A99049800F0D0FA0A900B9776E700230A220599049800F0C7FA059008990598AB
:40660000FFF720FA0D9B3030287001350400EB1ABB42ECDB3D1E00DC01250A9600260D9B5D1905990122049800F01CFC0899059000F06AFC002804DC13D1E30701D410E0DA
:406640001D006B1E1A78392A08D10D9A9A42F7D1039B013303933123137008E001321A7005E06B1E1A78302A01D11D00F9E70899049800F070FA0A9B002B0ED0002E05D006
:406680009E4203D03100049800F065FA0A99049800F061FA01E00E9B03930498059900F05AFA00232B70039B249A01331360269B0D98002B10D01D600EE0229B012B00DC81
:4066C00043E6119D012065E6002F00DDDEE6229B022B00DCDAE6AEE61DB0F0BDF7B58A8905000C0013075AD44B68002B02DC0B6C002B19DDE76A002F16D000232E682B60DD
:4067000080235B011A4001D0606D14E00123216A2800B847431C0ED12B68002B0BD01D2B01D0162B02D12E6000205AE04022A3891343A38155E0A3895B0706D56368C01A61
:40674000636B002B01D0236CC01A00230200216A2800E76AB847A389421C06D129681D293AD8204ACA40D20736D50022626022692260DB0405D5431C02D12B68002B00D1B1
:406780006065616B2E600029CED023004433994202D0280000F0A0FC0020606321E00F69002FC1D00B680F60DB1B01930023920700D14B69A36003E0019B3F181B1A01938D
:4067C000019B002BB0DD019B3A00216A2800A66AB0470028F0DCA389402201201343A3814042FEBD010040200B6970B505000C00002B01D100201CE0002804D08369002B24
:4068000001D100F05FF80B4B9C4201D16C6808E0094B9C4201D1AC6803E0084B9C4200D1EC680C22A35E002BE4D021002800FFF755FF70BD2CE001004CE001006CE00100D7
:4068400010B5024900F0B0F810BDC046E9670000002310B5040003604360836081814366C281036143618361190008225C30FEF7FBFA054B24626362044BA362044BE36262
:40688000044B236310BDC0464975000071750000A9750000D575000070B568254B1E5D430E002900743100F063FC041E08D000212A00016046600C30A0606832FEF7D4FA59
:4068C000200070BD836913B50400002B28D18364C3640365134B144A1B6882620193984201D101238361200000F020F86060200000F01CF8A060200000F018F80022E06000
:4069000004216068FFF7A4FF01220921A068FFF79FFF02221221E068FFF79AFF0123A36113BDC046E4DF010041680000F8B51D4B06001D68AB69002B02D12800FFF7C2FFBE
:406940004835AC686B68013B05D40C22A75E002F10D06834F7E72B68002B01D02D68F0E704213000FFF798FF28600028F6D10C23336016E0012320005B42E3810233A38138
:4069800067662760A760676027616761A7615C3008223900FEF768FA20006763A763A764E764F8BDE4DF0100F7B504000700002601914834002C16D06368A5680093009B51
:4069C000013B00930DD4AB89012B08D90E22AB5E013304D029003800019B984706436835EDE72468E6E73000FEBD0000004870473418002070B50E001D000E23C95E90B038
:406A00001400002906DA00232B60B3891B060FD540230FE001AA00F009FE0028F3DBF023029A1B021340054A9B185A4253412B608023DB000020236010B070BD00E0FFFF98
:406A4000F7B502268B8905000C00334210D101AB6A46FFF7CFFF00990700280000F088FB00280CD10C22A35E9A0523D43343A3812300473323602361012363611AE08022E0
:406A80000D4BAB62A38920601343A381009B20616361019B002B0AD00E23E15E280000F0D7FD002803D00122A3891343A381A3891F43A781F7BDC0464168000010B5034B7E
:406AC0000100186800F054FB10BDC04630180020C9B28218904204D003788B4202D00130F8E70020704770B5466A04000D00002E07D11020FFF7E2FF606246608660066038
:406B0000C660666AF368002B09D0636AAA00DB689B18186800280ED002681A6017E021220421200000F0CAFA636AF060DB68002BEBD100200EE001210E00AE40721D920062
:406B4000200000F0BBFA0028F3D04560866000230361C36070BD70B5456A06000C00002D07D11020FFF7AAFF7062456085600560C560002C07D0726A6368D2689B00D318F9
:406B80001A6822601C6070BDF7B5070008000C000D691E00002101921430019A0388013153439B190668360C56431A0C9446B4446246160C120494469BB2634408C08D42AD
:406BC000EBDC002E1BD0A3689D4212DB63683800591CFFF788FF2100236901909A1C92000C310C30FEF737F921003800FFF7B3FF019C2B1D9B00E31801355E6025612000AF
:406C0000FEBD00220300010C914201D103041032190E01D108321B02190F01D104321B01990F01D102329B001000002B03DB20205B0000D5501C70470722036810B501008E
:406C40001A400CD001240020234223D10222134203D0E34020000B601CE09B0818E098B2002801D110221B0CD8B2002801D108321B0A180701D104321B09980701D102323F
:406C80009B08D80704D45B082020002B02D0013210000B6010BD10B50C000121FFF723FF01234461036110BDF0B50B691400126989B00D00934201DA25000C002F69266964
:406CC000AA68BB1969680193934200DD0131FFF70AFF0200BB1914329B00D3189C46002113000290634501D202C3FBE71435BF00EB191434B6000593A31903950793079BC8
:406D00009C4251D2208800281ED015000026039F08CF069504936B461B8A434319002B88CB1804999B19090C41432E68360C89191E0C89190E0C9BB209040B4308C5059BC4
:406D4000BB42E5D8069B5E6023681D0C1FD0002110001368039F04913E8801686E43090C7118049E9BB289190E043343036008CF86881B0C6B43090C9B195B18190C0491CA
:406D8000059906900430B942E6D806994B6004340432B4E704235B429C4463461B68002B05D1019B013B0193019B002BF2DC029B019A18001A6109B0F0BD00000323F7B58A
:406DC000134005000E001400002B08D02349013B9A00525800233100FFF7D6FE0600A310019338D06C6A002C07D11020FFF766FE6862446084600460C4606F6ABC68002C50
:406E000010D117492800FFF746FF0023B8600400036007E0019B5B1001931CD02068002810D004000122019B1342F3D0310022002800FFF739FF070031002800FFF78BFEAB
:406E40003E00E7E7220021002800FFF72DFF002320600360E5E73000FEBDC04660E1010071020000F0B50C0017002369551185B0EB180193013300934968A3680290009ACC
:406E8000934202DA01315B00F9E70298FFF72BFE00230200060019001432AB4203DA980011500133F9E7EB43DB171D402300AD0055192269143392009A1894461F22174057
:406EC00014D00132D21B0392002219682800B9400A4304C504CB0399CA409C45F5D84260002A07D0019B0233009303E004CB04C59C45FBD8009B0298013B33612100FFF7AA
:406F00002AFE300005B0F0BD03690A6910B59B1A0400181E12D1930014341431E218C918043A043913680868834204D083429B410120184302E09442F2D3002010BDF0B5FB
:406F40000C0085B00700110020001500FFF7DCFF061E07D101003800FFF7C5FD01234661036155E000230193984204DA23002C001D000123019361683800FFF7B4FD019B8A
:406F800026692F00C3601434B300E318020002932B69002514379B00FB180393143208CC69469C4608CF0432009363468B808B885D19009B9BB2EB1A65460193009B2D0C93
:406FC000190C019B691A1D14131F9C466B4649199B880D1409040B4361460B60039BBB42DDD8029913008C420BD202CC8BB25B191D14090C49190D149BB209040B4308C2E1
:40700000EFE7043B1A68002A01D1013EF9E7066105B0F0BDF7B51D000121089F1400FFF762FD2B036D0006001B0B6D0D02D08022520313430193002C18D068460094FFF79A
:40704000FBFD009C002809D0019B20211A00091A8A40C34022437261019300E07461019CB461631E9C410134346107E001A8FFF7E3FD0124019B346173612030002D06D056
:407080000B4BED1835232D183D60181A0BE0094BC018094B3860E3189B00F3185869FFF7B0FD6401201A099B18603000FEBDC046CDFBFFFFCEFBFFFFFFFFFF3F4A4370B5DA
:4070C0001100140000F054F8051E03D022000021FDF7CAFE280070BD70B50500002944D00C1F2368002B00DAE418280000F0D6FA1E4A13681100002B02D16360146031E0A5
:40710000A3420DD92268A018834203D118685B688218226063600C6024E0A24203D813005A68002AF9D11E689819A0420BD12168711858181960824214D11068526841186B
:4071400019605A600EE0A04202D90C232B6009E021686018824203D1106852684118216062605C60280000F09AFA70BDD42A0020032370B5CD1C9D43083506000C2D01D211
:407180000C2501E0002D01DBA94202D90C23336048E0300000F082FA234B1C681A002100002913D00B685B1B0DD40B2B02D90B60CC181EE08C4202D1636813601AE04B687B
:4071C00063600C0016E00C004968E9E7174C2368002B03D1300000F0A5F920602900300000F0A0F9431C18D00323C41C9C43A0420DD12560300000F052FA200007220B30CF
:40720000231D9043C31A0ED05A42E2500BE0211A300000F087F9431CEBD10C233000336000F03DFA002070BDD42A0020D02A0020936810B5013B9360002B05DA9469A34258
